:1013F800E4F5917B04FAF9F8120445900046E0F808
:10140800A3E0F9A3E0FAA3E0FB120445EF14F5BE4C
:03141800D2C62217
:0A152700E4F5918FC1D2C6D2C222B2
:06153A00E4F591C2C62297
:10150500E4F591EF6007147007439B0122539BFE9E
:0115150022B3
:05154000E4F591AFBDD0
:011545002283
:10151600EF600A14700A43BF0243BF042253BFFBA5
:0115260022A2
:07000300E4F59153BFFE225A
:1014D000C2C3E5C030E313E5BD7002D2C4C2C3206D
:0B14E000C3F0C2C6D2C6C2C380E8221F
:10128800A2AF9204C2AF75C7AA75C755E4F591A27B
:101298000492AF43B30843B408A2AF9204C2AF7537
:1012A800C7AA75C755F591A20492AF43B31043B4CA
:0912B8001075BE0EC2C0D2C622A0
:0315460080FE2202
:10143D007FE87E03D2C5C2C320C312D3EF9400EE62
:0D144D00648094804007EF1F70011E80EB4B
:01145A00226F
:10145B007FE87E03C2C3D2C430C412D3EF9400EE34
:0D146B00648094804007EF1F70011E80EB2D
:011478002251
:101479007DE87C03C2C58FBCC2C320C310D3ED94E1
:0D14890000EC94004007ED1D70011C80ED8B
:011496002233
:100026007DE87C03E4FED2C2C2C320C312D3ED94A2
:1000360000EC648094804007ED1D70011C80EBAEDF
:10004600BCEFB4011D7C037DE8C2C2C2C320C3124B
:10005600D3ED9400EC648094804007ED1D70011C84
:0400660080EBAF0676
:01006A002273
:10141B00AB05AA04A90712143D7F12121479AF0170
:10142B00121479AF03EB121479EAFF121479121428
:02143B005B2232
:02138600AB07B3
:10138800E4FD12143D7F12121479AF03121479127E
:10139800143D7F131214797F01120026AD07121431
:0313A8005BAF0533
:0113AB00221F
:10149700C1834200140000420016000042001E00F3
:0814A7000044001800000000E1
:03000B000210C818
:1010C800C0E0C0F0C083C082C0D075D000C000C0EE
:1010D80006C09190001CE0F58CA3E0F58AC28D90C3
:1010E8000014E475F0011203A4FED3E5F094FAEEBF
:1010F80094004007900014E4F0A3F0A2AF9204C259
:10110800AF75C7AA75C755759100A20492AFC2EF13
:10111800A2AF9204C2AF75C7AA75C755759100A250
:101128000492AFD2EED091D006D000D0D0D082D0E9
:0611380083D0F0D0E0328C
:100B1300D205A2AF9204C2AF75C7AA75C755E4F553
:100B230091A20492AF53B3FB43B404A2AF9204C2A5
:100B3300AF75C7AA75C755F591A20492AF53B3FD1C
:100B430043B402A2AF9204C2AF75C7AA75C755F5E5
:100B530091A20492AF53B3FE43B401A2AF9204C275
:100B6300AF75C7AA75C755F591A20492AF53B1FEED
:100B730043B201A2AF9204C2AF75C7AA75C755F5B8
:100B830091A20492AF43B10853B2F712124D12135C
:100B9300307FE87E0312120C12128812113EC292A9
:100BA300C291C290C280208307121531D2058035CD
:100BB30030053290000AE4F0A304F0A37403F0A319
:100BC30074E8F0A3120504000003E87F007E367D7D
:100BD3006E7C011208C1A2834003D38001C3400588
:0A0BE300120FB2C205120E5A80BCB8
:010BED0022E5
:100FB200C292C290D29190000AE4F0A304F0A3E49A
:100FC200F0A37464F0A3120504000003E87F007E1E
:100FD200367D6E7C011208C1C29190000AE4F0A332
:100FE20004F0A37407F0A374D0F0A3120504000068
:100FF20003E87F007E367D6E7C011208C1D28090AC
:10100200000AE4F0A304F0A3E4F0A37464F0A312D2
:101012000504000003E87F007E367D6E7C01120825
:10102200C1C28090000AE4F0A304F0A37403F0A309
:1010320074E8F0A3120504000003E87F007E367D09
:091042006E7C011208C1D20322E8
:0915310030030512113EC2032231
:10113E007FFE121386900000EFF07FFF1213869051
:10114E000001EFF090000AE4F0A304F0A37403F0A2
:10115E00A374E8F0A3120504000003E87F007E36B6
:10116E007D6E7C011208C17D007C047F3F12141B32
:10117E007D007C017F1412141B7D007C347F1512C0
:10118E00141B90000AE4F0A304F0A37413F0A374EC
:10119E0088F0A3120504000003E87F007E367D6E02
:0511AE007C011208C1E4
:0111B3002219
:100E5A0020EF03020F1712000E900016EEF0A3EF18
:100E6A00F0900020E0FCA3E0FDA3E0FEA3E0FFC0B9
:100E7A0004C005C006C007900020E0A3E0A3E0A3D9
:100E8A00E078041204E5A804A905AA06AB07D0076E
:100E9A00D006D005D004C3EF9BFFEE9AFEED99FD74
:100EAA00EC98FC9000201204F8900020E0F8A3E0EF
:100EBA00F9A3E0FAA3E0FB900016E0FEA3E0FFE44A
:100ECA00FCFDEB2FFFEA3EFEED39FDEC38FC90000D
:100EDA00201204F8900020E0FCA3E0FDA3E0FEA3AA
:100EEA00E0FF78041204E590001EEEF0A3EFF01282
:100EFA000D989000181204F8A2AF9204C2AF75C7F9
:0E0F0A00AA75C755E4F591A20492AFC2EF227A
:080D9800900000EEF0A3EFF063
:100DA000A312050443130000900006120504424CF0
:100DB0000000900006E0FCA3E0FDA3E0FEA3E0FF3E
:100DC000900002E0F8A3E0F9A3E0FAA3E0FB120030
:100DD00085A804A905AA06AB07900006E0FCA3E0DD
:100DE000FDA3E0FEA3E0FF12027F90000A1204F8C8
:100DF00090000E12050440533333900012740FF02C
:100E0000A374FFF0900000E0FCA3E0FDE4120321D6
:100E100090000EE0F8A3E0F9A3E0FAA3E0FB1201D2
:100E200076C004C005C006C007900012E0FCA3E035
:100E3000FDE4120321A804A905AA06AB07D007D038
:100E400006D005D00412027F90000AE0F8A3E0F972
:090E5000A3E0FAA3E0FB12027F0B
:010E59002276
:1013300053E1CF43E130A2AF9204C2AF75C7AA75A3
:10134000C755E4F591A20492AF43B11053B2EF43F5
:0C135000F62043E10153E8F043E80522D9
:10000E00AFC3EF75F010A4FFAEF0E5C2540FFDE5DF
:05001E00F0EF4DFF2290
:10120C007C007D02120562C3EE942040047E1F7F99
:10121C00FFC3E49FFF74209EAD07FCFEED7805CE66
:10122C00C313CE13D8F9FF90001CF0ED541FA3F09C
:10123C008F8CF58A53890F538EF7D2A9D2AFD28CEB
:01124C00227F
:10124D007F06120A17A2AF9204C2AF75C7AA75C75F
:10125D0055E4F591A20492AF53B1BF53B2BF9000C4
:10126D000404F0A31205040001C2007F007E367D48
:0B127D006E7C0112058FD299D2002276
:100A1700E4F591EF24F9600C14600E2402700D7553
:100A2700A638800875A630800375A630A2AF920459
:100A3700C2AF75C7AA75C755439F01A20492AFE419
:100A4700F5A775AF04A2AF9204C2AF75C7AA75C761
:100A57005543A401A20492AF85AE0B05A6A2AF929F
:100A670004C2AF75C7AA75C75543A401A20492AFC4
:100A770085AE0CEF24F8706EE50B25E0FFE433FE3E
:100A8700E50C54017C002FFFEC3EFE74F22FFF743F
:100A9700FF3EFE75AF0C75A601E4F5A7A2AF920461
:100AA700C2AF75C7AA75C75543A401A20492AFE5A3
:100AB700AE644B600BE5AE64526005E5AEB4531A05
:100AC700E50B543FF50DC39407500A74F62FFF74D6
:100AD700FF3EFE8005EF1F70011EEF5401F50CEE7F
:100AE700C313EF13F50B75C7AA75C755850B847527
:100AF700C7AA75C755850C85A2AF9204C2AF75C743
:0B0B0700AA75C755539FFEA20492AFD1
:010B120022C0
:1011B400EF24FD60121460282402704B7F02121287
:1011C400C17F0212104B227F0312104BA2AF920474
:1011D400C2AF75C7AA75C7555397DFA20492AF2251
:1011E4007F021212C17F0212104B7F041212C17FC0
:1011F4000412104BA2AF9204C2AF75C7AA75C755AB
:081204005397DFA20492AF2210
:1012C100EF24FC60222402702FA2AF9204C2AF75FA
:1012D100C7AA75C755439720A20492AFE59644DF8C
:1012E100FFBFDF1480F62275C7AA75C7554397C0A3
:0912F100E59644F764F760F82269
:10135C00E4F591EF24FC60182402701DA2AF9204F6
:10136C00C2AF75C7AA75C7555397DFA20492AF22B7
:0A137C0075C7AA75C75553973F22A5
:10104B00E4F591A2AF9204C2AFEF24FD602F1460C0
:10105B005424027063A2AF9204C2AF75C7AA75C7BE
:10106B00555396FBA20492AFA2AF9204C2AF75C7C1
:10107B00AA75C7555396FDA20492AF803BA2AF92BF
:10108B0004C2AF75C7AA75C755439604A20492AFA5
:10109B00A2AF9204C2AF75C7AA75C7555396FDA2EE
:1010AB000492AF8013A2AF9204C2AF75C7AA75C7E3
:0D10BB0055439608A20492AFA20492AF2202
:0414AF00C100C101B6
:030023000213AC19
:1013AC00C0E0C083C082C09130980AD20190004A3C
:1013BC00E599F0C298309905200002C299D091D0DD
:0613CC0082D083D0E03264
:03007B000213D29B
:1013D200C0E0C083C082C09130F80A90004BE59A09
:1013E200F0D202C2F830F905200002C2F9D091D041
:0613F20082D083D0E0323E
:10058F009000001204F8900004E014605E147003F1
:10059F000206A5240260030207377598504389208D
:1005AF00438780438E10A2AF9204C2AF75C7AA755E
:1005BF00C755E4F591A20492AF53C4DF7B10FAF94B
:1005CF00F8900000E0FCA3E0FDA3E0FEA3E0FF1223
:1005DF000445900005E0F8A3E0F9A3E0FAA3E0FBDF
:1005EF00120445EFF404F58DD28E2275985043878F
:1005FF008053C4F8A2AF9204C2AF75C7AA75C7558E
:10060F00E4F591A20492AF43C4207B10FAF9F8905D
:10061F000000E0FCA3E0FDA3E0FEA3E0FF12044511
:10062F00900005E0F8A3E0F9A3E0FAA3E0FB1204C1
:10063F0045C3E49FFFE49EFE74019DFDE49CFC789E
:10064F00081204E58FC6E47B10FAF9F8900000E079
:10065F00FCA3E0FDA3E0FEA3E0FF1204459000051C
:10066F00E0F8A3E0F9A3E0FAA3E0FB120445C3E42A
:10067F009FFFE49EFE74019DFDE49CFCEFE48FC59B
:10068F00A2AF9204C2AF75C7AA75C755F591A20460
:10069F0092AF43C4082275F85075C480E47B10FAFA
:1006AF00F9F8900000E0FCA3E0FDA3E0FEA3E0FF5B
:1006BF00120445900005E0F8A3E0F9A3E0FAA3E0E7
:1006CF00FB120445C3E49FFFE49EFE74019DFDE40D
:1006DF009CFC78081204E58FC6E47B10FAF9F890B9
:1006EF000000E0FCA3E0FDA3E0FEA3E0FF12044541
:1006FF00900005E0F8A3E0F9A3E0FAA3E0FB1204F1
:10070F0045C3E49FFFE49EFE74019DFDE49CFCEF56
:10071F00E48FC5A2AF9204C2AF75C7AA75C755F5CE
:09072F0091A20492AF43C4082218
:1014EB00EF14600C0470103098FDAE99C298800711
:0914FB0030F8FDAE9AC2F8AF060C
:0115040022C4
:0F006B00EF1460060470078D9922AF058F9A225B
:1012FA00A2AF9204C2AF75C7AA75C755E4F591A209
:10130A000492AF53B1BF53B2BF90000404F0A312CA
:10131A0005040001C2007F007E367D6E7C01120545
:06132A008FD299D20022CF
:060BEE009000301204F833
:100BF400538EF75389F04389017B407A42790F7809
:100C040000900030E0FCA3E0FDA3E0FEA3E0FF12AF
:100C14000445A804A905AA06AB07900036E0FEA384
:100C2400E0FFE4FCFD1203BAE47B0CFAF9F81204C9
:100C340045C374FF9FFF74FF9EFEE49DFDE49CFC8E
:100C4400EFE4900038EFF07B407A42790F7800901F
:100C54000030E0FCA3E0FDA3E0FEA3E0FF120445A6
:100C6400A804A905AA06AB07900036E0FEA3E0FF9E
:100C7400E4FCFD1203BAE47B0CFAF9F8120445C350
:100C840074FF9FFF74FF9EFEE49DFDE49CFC7808C6
:100C94001204E5900034E07002A3E0602190003873
:100CA400E0F58A8F8CD28C308DFDC28DC28C900081
:0E0CB40035E024FFF0900034E034FFF080D5EE
:010CC200220F
:060CC3009000391204F854
:100CC900538EEF53890F4389107B407A42790F780D
:100CD90000900039E0FCA3E0FDA3E0FEA3E0FF12D1
:100CE9000445A804A905AA06AB0790003FE0FEA3A6
:100CF900E0FFE4FCFD1203BAE47B0CFAF9F81204F4
:100D090045C374FF9FFF74FF9EFEE49DFDE49CFCB8
:100D1900EFE4900041EFF07B407A42790F78009040
:100D29000039E0FCA3E0FDA3E0FEA3E0FF120445C7
:100D3900A804A905AA06AB0790003FE0FEA3E0FFBF
:100D4900E4FCFD1203BAE47B0CFAF9F8120445C37A
:100D590074FF9FFF74FF9EFEE49DFDE49CFC7808F0
:100D69001204E590003DE07002A3E060219000418B
:100D7900E0F58B8F8DD28E308FFDC28FC28E9000A1
:0E0D89003EE024FFF090003DE034FFF080D506
:010D97002239
:0608C1009000061204F88D
:1008C700E4F59190000AE0FEA3E08EF012053508EA
:1008D700FA000108FF000409070010090F002009AA
:1008E700170040091F008009270100092F02000097
:1008F70000093553C98F803653C98F43C910802EDD
:1009070053C98F43C920802653C98F43C930801EDE
:1009170053C98F43C940801653C98F43C950800EAE
:1009270053C98F43C960800653C98F43C970C2C872
:1009370043C98043C9047B407A42790F780090000D
:1009470006E0FCA3E0FDA3E0FEA3E0FF1204459050
:10095700000EE0F8A3E0F9A3E0FAA3E0FB1203BA64
:10096700C006C00790000AE0FEA3E0FFFBAA06E46A
:10097700F9F8D007D006120445C3E49FFFE49EFEB2
:1009870074019DFDE49CFCEFE4900012EFF07B40C6
:100997007A42790F7800900006E0FCA3E0FDA3E01F
:1009A700FEA3E0FF12044590000EE0F8A3E0F9A3D0
:1009B700E0FAA3E0FB1203BAC006C00790000AE002
:1009C700FEA3E0FFFBAA06E4F9F8D007D00612045D
:1009D70045C3E49FFFE49EFE74019DFDE49CFC7803
:1009E700081204E590000CE07002A3E0602190007B
:1009F70012E0F5CC8FCDD2CA30CFFDC2CFC2CA909C
:0F0A0700000DE024FFF090000CE034FFF080D5EC
:010A160022BD
:060738009000241204F8F9
:10073E00E4F591900028E024FE602124FE6025243B
:10074E00FC602924F8602D24F0603124E06035240B
:10075E00C06039247F703B53C4F8803653C4F843CD
:10076E00C401802E53C4F843C402802653C4F843F8
:10077E00C403801E53C4F843C404801653C4F84304
:10078E00C405800E53C4F843C406800653C4F84310
:10079E00C4077B407A42790F7800900024E0FCA3D6
:1007AE00E0FDA3E0FEA3E0FF12044590002BE0F86D
:1007BE00A3E0F9A3E0FAA3E0FB1203BAC00790008E
:1007CE0028E0FFFBE4FAF9F8D007120445C3E49FD2
:1007DE00FFE49EFE74019DFDE49CFCEFE490002F6F
:1007EE00EFF07B407A42790F7800900024E0FCA372
:1007FE00E0FDA3E0FEA3E0FF12044590002BE0F81D
:10080E00A3E0F9A3E0FAA3E0FB1203BAC00790003D
:10081E0028E0FFFBE4FAF9F8D007120445C3E49F81
:10082E00FFE49EFE74019DFDE49CFC78081204E535
:10083E00900029E07002A3E06078A2AF9204C2AFEC
:10084E0075C7AA75C755E4F591A20492AF53C4EFCC
:10085E0090002FE0F5C58FC6A2AF9204C2AF75C748
:10086E00AA75C755E4F591A20492AF43C408E5C436
:10087E0044EF64EF60F8A2AF9204C2AF75C7AA75D9
:10088E00C755E4F591A20492AF53C4EFA2AF920400
:10089E00C2AF75C7AA75C755F591A20492AF53C4DE
:1008AE00F790002AE024FFF0900029E034FFF002D8
:0208BE00083EF2
:0108C0002215
:1014B400EF14600D14600D14600E2403700DD2A996
:0C14C40022D2AB22439B8022439C0222D8
:03000000020F18D4
:100F1800787FE4F6D8FD9000007FFF7E03E4F0A31D
:0A0F2800DFFCDEFA758120020F6D78
:10007E0002038FE86480F8E933E83360110460F01E
:10008E00ED33EC337009E8FCE9FDEAFEEBFF2204E8
:10009E0060DED3EB9FEA9EE99DE8C2E78CF0C2F7E3
:1000AE0095F0400CE8CCF8E9CDF9EACEFAEBCFFBAF
:1000BE0012035A85D0F05804700320D5B3E80470AB
:1000CE00075002B2D502039992D5EC0460F7E4CC46
:1000DE00C0E0C398F8603B94186008400DD0E0FB78
:1000EE00020371E4FBFAC9FC8028E830E406E4C997
:1000FE00FBE4CAFCE830E305E4C9CACBFCE85407CC
:10010E006010F8C3E913F9EA13FAEB13FBEC13FCD6
:10011E00D8F130F52FC3E49CFCEF9BFFEE9AFEED79
:10012E0099FDD0E0FBEF4E4D4C701222DB03020323
:10013E0096EC2CFCEF33FFEE33FEED33FDED30E7A6
:10014E00EB020371EF2BFFEE3AFEED39FDD0E0FB33
:10015E0050130BBB0003020399ED13FDEE13FEEFDC
:08016E0013FFEC13FC02037106
:10017600EC4D6011E8497017ED33EC3304600DE483
:10018600FCFFFEFD22E933E8330470F802038F1208
:10019600035A58046009E4CC248150062850090209
:1001A6000399284003020396C0E0EB4A7044B980E5
:1001B60006D0E0FB020385EF4E701CBD8008EBFF06
:1001C600EAFEE9FD80EBE98DF0A4FEE5F002025FB0
:1001D600E9CDF9EAFEEBFFEF89F0A4FCE5F0CE8964
:1001E600F0A42EFFE435F0CD89F0A42DFEE435F021
:1001F6008067EF4E7005BD80D780C3EF8BF0A4AC4F
:10020600F0EE8BF0A42CFCE435F0F8EF8AF0A42C89
:10021600E5F038FCE433CB8DF0A42CFCE5F03BF89C
:10022600EE8AF0A42CFCE5F038F8E433CF89F0A48C
:100236002CFCE5F038CF3400CE89F0A42FFFE5F092
:100246003EFEE433C98DF0A42EFEE5F039CD8AF0EA
:10025600A42FFFE5F03EFEE43DFD33D0E0FB500762
:100266000BBB000F020399EC2CFCEF33FFEE33FEC1
:06027600ED33FD020371EF
:10027C00020399EC5D046005E85904700302038FD6
:10028C0012035A580460F6EC4860F2EC7004FDFE60
:10029C00FF22C860DB2481C85009C3986002500655
:1002AC000203969850CAF582E9294B4A7005AB8235
:1002BC0002038575F0007C1A7880C3EF9BEE9AEDF3
:1002CC0099400DC3EF9BFFEE9AFEED99FDE842F0CD
:1002DC00DC23ACF0D0E0FFD0E0FED0E0FDAB822020
:1002EC00E7101BEB60BAEC2CFCEF33FFEE33FEEDAA
:1002FC0033FD020371E803F830E705C0F075F00038
:10030C00EF2FFFEE33FEED33FD40B830E7C280AA8D
:10031C0075F020800E75F010800575F0087D007E5C
:10032C00007F003392D530D5031204D7EC33401044
:10033C00EF33FFEE33FEED33FDEC33FCD5F0ED2265
:0E034C00E5F0247EA2D513CC92E7CDCEFF22A1
:10035A00E9D2E7C933E833F892D5EDD2E7CD33ECE9
:07036A0033FC5002B2D52262
:10037100EC30E7100FBF000C0EBE00080DBD0004ED
:100381000BEB6014A2D5EB13FCED92E7FD2274FF99
:10039100FCFDFEFF22E480F8A2D574FF13FC7D80F2
:0303A100E480EF06
:100F3200020B13E493A3F8E493A34003F68001F2B7
:100F420008DFF48029E493A3F85407240CC8C333C0
:100F5200C4540F4420C8834004F456800146F6DF8F
:100F6200E4800B0102040810204080901497E47E74
:100F7200019360BCA3FF543F30E509541FFEE49384
:100F8200A360010ECF54C025E060A840B8E493A34B
:100F9200FAE493A3F8E493A3C8C582C8CAC583CA76
:100FA200F0A3C8C582C8CAC583CADFE9DEE780BE2E
:0114B3000038
:1003A400C5F0F8A3E028F0C5F0F8E58215827002E4
:0603B4001583E038F02281
:1003BA00E88FF0A4CC8BF0A42CFCE98EF0A42CFCE2
:1003CA008AF0EDA42CFCEA8EF0A4CDA8F08BF0A460
:1003DA002DCC3825F0FDE98FF0A42CCD35F0FCEBBF
:1003EA008EF0A4FEA9F0EB8FF0A4CFC5F02ECD3984
:0F03FA00FEE43CFCEAA42DCE35F0FDE43CFC22F1
:1004090075F008758200EF2FFFEE33FECD33CDCCAA
:1004190033CCC58233C5829BED9AEC99E58298402D
:100429000CF582EE9BFEED9AFDEC99FC0FD5F0D60A
:10043900E4CEFBE4CDFAE4CCF9A88222B800C1B934
:100449000059BA002DEC8BF084CFCECDFCE5F0CB72
:10045900F97818EF2FFFEE33FEED33FDEC33FCEBAB
:1004690033FB10D703994004EB99FB0FD8E5E4F966
:10047900FA227818EF2FFFEE33FEED33FDEC33FC53
:10048900C933C910D7059BE99A4007EC9BFCE99A47
:10049900F90FD8E0E4C9FAE4CCFB2275F010EF2F8C
:1004A900FFEE33FEED33FDCC33CCC833C810D7078C
:1004B9009BEC9AE899400AED9BFDEC9AFCE899F8C7
:0E04C9000FD5F0DAE4CDFBE4CCFAE4C8F9225A
:0E04D700C3E49FFFE49EFEE49DFDE49CFC2236
:1004E500E8600FECC313FCED13FDEE13FEEF13FFF5
:0304F500D8F12219
:0C04F800ECF0A3EDF0A3EEF0A3EFF02277
:10050400A8828583F0D083D08212051B12051B12AA
:10051400051B12051BE473E493A3C583C5F0C583CF
:10052400C8C582C8F0A3C583C5F0C583C8C582C841
:0105340022A4
:10053500D083D082F8E4937012740193700DA3A355
:1005450093F8740193F5828883E473740293B5F08C
:0D055500067403936860E9A3A3A3A380D8F4
:10056200EC8EF0A4CCC5F0CCCDF8EFA4CEC5F02D26
:10057200FDE43CFCE8A42EC8C5F03DFDE43CFCEFE4
:0D058200A4FFE5F028FEE43DFDE43CFC2272
:00000001FF
