:100CD600E4F5917B04FAF9F8120109900035E0F881
:100CE600A3E0F9A3E0FAA3E0FB120109EF14F5BEB5
:030CF600D2C62241
:0A0DCB00E4F5918FC1D2C6D2C22216
:060DDC00E4F591C2C622FD
:100DA900E4F591EF6007147007439B0122539BFE02
:010DB9002217
:050DE200E4F591AFBD36
:010DE70022E9
:100DBA00EF600A14700A43BF0243BF042253BFFB09
:010DCA002206
:070DD500E4F59153BFFE227B
:100D5700C2C3E5C030E314AFBDEF7002D2C4C2C353
:0C0D670020C3EFC2C6D2C6C2C380E72280
:100B9300A2AF9203C2AF75C7AA75C755E4F591A278
:100BA3000392AF43B30843B408A2AF9203C2AF7535
:100BB300C7AA75C755F591A20392AF43B31043B4C7
:090BC3001075BE0EC2C0D2C6229C
:030DED0080FE2263
:100003007FE87E03D2C5C2C320C312D3EF9400EEB0
:0D001300648094804007EF1F70011E80EB99
:0100200022BD
:100D1B007FE87E03C2C3D2C430C412D3EF9400EE7B
:0D0D2B00648094804007EF1F70011E80EB74
:010D38002298
:100D39007DE87C03C2C58FBCC2C320C310D3ED9428
:0D0D490000EC94004007ED1D70011C80EDD2
:010D5600227A
:100026007DE87C03E4FED2C2C2C320C312D3ED94A2
:1000360000EC648094804007ED1D70011C80EBAEDF
:10004600BCEF6401701D7C037DE8C2C2C2C320C33D
:1000560012D3ED9400EC648094804007ED1D70018E
:050066001C80EBAF0659
:01006B002272
:100CF900AB05AA04A9071200037F12120D39AF012F
:100D0900120D39AF03EB120D39EAFF120D39120D2D
:020D19001B229B
:020C6400AB07DC
:100C6600E4FD1200037F12120D39AF03120D391283
:100C760000037F13120D397F01120026AD07120DF6
:030C86001BAF059C
:010C89002248
:10095F00120B937FFE120C64900000EFF07FFF12DA
:10096F000C64900001EFF090000AE4F0A304F0A3F0
:10097F00F0A374F4F0A31201CB000003E87F007E14
:10098F00367D6E7C0112055B7D007C047F3F120C6F
:10099F00F97D007C027F14120CF97D307C317F15BC
:1009AF00120CF990000AE4F0A304F0A3F0A374F47E
:1009BF00F0A31201CB000003E87F007E367D6E7C32
:1009CF000112055B7D4A7CF27F12120CF990000236
:1009DF00E0FEA3E0FFEE3395E0FDFCEF5440FFE4B3
:1009EF00FEFDFCFBFAF9F8C312019B70097D4A7CEE
:1009FF00F27F12120CF990000AE4F0A37432F0A304
:100A0F007403F0A374E8F07F007E367D6E7C0112D4
:040A1F0007B580B9DE
:010A230022B0
:1006B100E4F591EF24F9600C14600E2402700D75BD
:1006C100A638800875A630800375A630A2AF9203C4
:1006D100C2AF75C7AA75C755439F01A20392AFE484
:1006E100F5A775AF04A2AF9203C2AF75C7AA75C7CC
:1006F1005543A401A20392AF85AE0B05A6A2AF920A
:1007010003C2AF75C7AA75C75543A401A20392AF2F
:1007110085AE0CEF24F87076E50B25E0FFE433FE9F
:10072100E50C54017C002FFFEC3EFE74F22FFF74A8
:10073100FF3EFE75AF0C75A601E4F5A7A2AF9203CB
:10074100C2AF75C7AA75C75543A401A20392AFAD45
:10075100AEED644B600EADAEED64526007ADAEED33
:100761006453701EE50B543FF50DC39407748094D8
:1007710080500A74F62FFF74FF3EFE8005EF1F7054
:10078100011EEF5401F50CEEC313EF13F50B75C702
:10079100AA75C755850B8475C7AA75C755850C857C
:1007A100A2AF9203C2AF75C7AA75C755539FFEA2E8
:0307B1000392AF01
:0107B4002222
:100B3B00EF24FD60121460282402704B7F02120B0D
:100B4B00CC7F02120ABE227F03120ABEA2AF92030F
:100B5B00C2AF75C7AA75C7555397DFA20392AF22D1
:100B6B007F02120BCC7F02120ABE7F04120BCC7FCA
:100B7B0004120ABEA2AF9203C2AF75C7AA75C755BE
:080B8B005397DFA20392AF2291
:100BCC00EF24FC60222402702FA2AF9203C2AF75F7
:100BDC00C7AA75C755439720A20392AFE59644DF89
:100BEC0064DF701480F62275C7AA75C7554397C089
:090BFC00E59644F764F760F82265
:100C3A00E4F591EF24FC60182402701DA2AF920320
:100C4A00C2AF75C7AA75C7555397DFA20392AF22E1
:0A0C5A0075C7AA75C75553973F22CE
:100ABE00E4F591A2AF9203C2AFEF24FD602F146054
:100ACE005424027063A2AF9203C2AF75C7AA75C752
:100ADE00555396FBA20392AFA2AF9203C2AF75C756
:100AEE00AA75C7555396FDA20392AF803BA2AF9253
:100AFE0003C2AF75C7AA75C755439604A20392AF3A
:100B0E00A2AF9203C2AF75C7AA75C7555396FDA281
:100B1E000392AF8013A2AF9203C2AF75C7AA75C777
:0D0B2E0055439608A20392AFA20392AF2296
:040DE800C100C10184
:03002300020C8A42
:100C8A00C0E0C083C082C09130980AD20190003976
:100C9A00E599F0C298309905200002C299D091D006
:060CAA0082D083D0E0328D
:03007B00020CB0C4
:100CB000C0E0C083C082C09130F80A90003AE59A43
:100CC000F0D202C2F830F905200002C2F9D091D06A
:060CD00082D083D0E03267
:1002290090001F1201BF900023E014605E14700358
:1002390002033F240260030203D1759850438920C9
:10024900438780438E10A2AF9203C2AF75C7AA75C8
:10025900C755E4F591A20392AF53C4DF7B10FAF9B5
:10026900F890001FE0FCA3E0FDA3E0FEA3E0FF126D
:100279000109900024E0F8A3E0F9A3E0FAA3E0FB68
:10028900120109EFF404F58DD28E22759850438737
:100299008053C4F8A2AF9203C2AF75C7AA75C755F8
:1002A900E4F591A20392AF43C4207B10FAF9F890C8
:1002B900001FE0FCA3E0FDA3E0FEA3E0FF1201099B
:1002C900900024E0F8A3E0F9A3E0FAA3E0FB12010F
:1002D90009C3E49FFFE49EFE74019DFDE49CFC7844
:1002E900081201AC8FC6E47B10FAF9F890001FE000
:1002F900FCA3E0FDA3E0FEA3E0FF120109900024A6
:10030900E0F8A3E0F9A3E0FAA3E0FB120109C3E4D2
:100319009FFFE49EFE74019DFDE49CFCEFE48FC504
:10032900A2AF9203C2AF75C7AA75C755F591A203CB
:1003390092AF43C4082275F85075C480E47B10FA63
:10034900F9F890001FE0FCA3E0FDA3E0FEA3E0FFA5
:10035900120109900024E0F8A3E0F9A3E0FAA3E070
:10036900FB120109C3E49FFFE49EFE74019DFDE4B5
:100379009CFC78081201AC8FC6E47B10FAF9F8905E
:10038900001FE0FCA3E0FDA3E0FEA3E0FF120109CA
:10039900900024E0F8A3E0F9A3E0FAA3E0FB12013E
:1003A90009C3E49FFFE49EFE74019DFDE49CFCEFFC
:1003B900E48FC5A2AF9203C2AF75C7AA75C755F539
:0903C90091A20392AF43C4082283
:100D8F00EF14600C0470103098FDAE99C298800774
:090D9F0030F8FDAE9AC2F8AF066F
:010DA8002228
:0F006C00EF1460060470078D9922AF058F9A225A
:100C0500A2AF9203C2AF75C7AA75C755E4F591A205
:100C15000392AF53B1BF53B2BF900023F0A31201AB
:100C2500CB0001C2007F007E367D6E7C0112022959
:050C3500D299D200225B
:0607B5009000061201BFD6
:1007BB00538EF75389F04389017B407A42790F7846
:1007CB0000900006E0FCA3E0FDA3E0FEA3E0FF1217
:1007DB000109A804A905AA06AB0790000CE0FEA32B
:1007EB00E0FFE4FCFD12007EE47B0CFAF9F8120149
:1007FB0009C374FF9FFF74FF9EFEE49DFDE49CFC08
:10080B00EFE490000EEFF07B407A42790F78009086
:10081B000006E0FCA3E0FDA3E0FEA3E0FF1201094C
:10082B00A804A905AA06AB0790000CE0FEA3E0FF05
:10083B00E4FCFD12007EE47B0CFAF9F8120109C30B
:10084B0074FF9FFF74FF9EFEE49DFDE49CFC780803
:10085B001201AC90000AE07002A3E0602190000E40
:10086B00E0F58A8F8CD28C308DFDC28DC28C9000BE
:0E087B000BE024FFF090000AE034FFF080D57F
:01088900224C
:06088A009000281201BFDE
:10089000538EEF53890F4389107B407A42790F784A
:1008A00000900028E0FCA3E0FDA3E0FEA3E0FF121F
:1008B0000109A804A905AA06AB0790002EE0FEA333
:1008C000E0FFE4FCFD12007EE47B0CFAF9F8120173
:1008D00009C374FF9FFF74FF9EFEE49DFDE49CFC32
:1008E000EFE4900030EFF07B407A42790F7800908F
:1008F0000028E0FCA3E0FDA3E0FEA3E0FF12010955
:10090000A804A905AA06AB0790002EE0FEA3E0FF0D
:10091000E4FCFD12007EE47B0CFAF9F8120109C335
:1009200074FF9FFF74FF9EFEE49DFDE49CFC78082D
:100930001201AC90002CE07002A3E0602190003026
:10094000E0F58B8F8DD28E308FFDC28FC28E9000DE
:0E0950002DE024FFF090002CE034FFF080D565
:01095E002276
:06055B009000061201BF32
:10056100E4F59190000AE0FEA3E08EF01201FC0593
:100571009400010599000405A1001005A9002005BA
:10058100B1004005B9008005C1010005C9020000A4
:100591000005CF53C98F803653C98F43C910802EB0
:1005A10053C98F43C920802653C98F43C930801E48
:1005B10053C98F43C940801653C98F43C950800E18
:1005C10053C98F43C960800653C98F43C970C2C8DC
:1005D10043C98043C9047B407A42790F7800900077
:1005E10006E0FCA3E0FDA3E0FEA3E0FF12010990F9
:1005F100000EE0F8A3E0F9A3E0FAA3E0FB12007E0D
:10060100C006C00790000AE0FEA3E0FFFBAA06E4D3
:10061100F9F8D007D006120109C3E49FFFE49EFE5A
:1006210074019DFDE49CFCEFE4900012EFF07B402F
:100631007A42790F7800900006E0FCA3E0FDA3E088
:10064100FEA3E0FF12010990000EE0F8A3E0F9A378
:10065100E0FAA3E0FB12007EC006C00790000AE0AA
:10066100FEA3E0FFFBAA06E4F9F8D007D0061201C9
:1006710009C3E49FFFE49EFE74019DFDE49CFC78A8
:10068100081201AC90000CE07002A3E06021900020
:1006910012E0F5CC8FCDD2CA30CFFDC2CFC2CA9005
:0F06A100000DE024FFF090000CE034FFF080D556
:0106B0002227
:0603D2009000131201BFB0
:1003D800E4F591900017E024FE602124FE602524B6
:1003E800FC602924F8602D24F0603124E060352475
:1003F800C06039247F703B53C4F8803653C4F84337
:10040800C401802E53C4F843C402802653C4F84361
:10041800C403801E53C4F843C404801653C4F8436D
:10042800C405800E53C4F843C406800653C4F84379
:10043800C4077B407A42790F7800900013E0FCA350
:10044800E0FDA3E0FEA3E0FF12010990001AE0F826
:10045800A3E0F9A3E0FAA3E0FB12007EC007900036
:1004680017E0FFFBE4FAF9F8D007120109C3E49F8B
:10047800FFE49EFE74019DFDE49CFCEFE490001EE9
:10048800EFF07B407A42790F7800900013E0FCA3EC
:10049800E0FDA3E0FEA3E0FF12010990001AE0F8D6
:1004A800A3E0F9A3E0FAA3E0FB12007EC0079000E6
:1004B80017E0FFFBE4FAF9F8D007120109C3E49F3B
:1004C800FFE49EFE74019DFDE49CFC78081201ACDB
:1004D800900018E07002A3E06078A2AF9203C2AF68
:1004E80075C7AA75C755E4F591A20392AF53C4EF37
:1004F80090001EE0F5C58FC6A2AF9203C2AF75C7C4
:10050800AA75C755E4F591A20392AF43C408E5C4A0
:1005180044EF64EF60F8A2AF9203C2AF75C7AA7543
:10052800C755E4F591A20392AF53C4EFA2AF92036B
:10053800C2AF75C7AA75C755F591A20392AF53C448
:10054800F7900019E024FFF0900018E034FFF00263
:0205580004D8C5
:01055A00227E
:100D7300EF14600D14600D14600E2403700DD2A9DE
:0C0D830022D2AB22439B8022439C022220
:03000000020A24CD
:100A2400787FE4F6D8FD9000007FFF7E03E4F0A316
:0A0A3400DFFCDEFA758120020A796A
:100A3E0002095FE493A3F8E493A34003F68001F266
:100A4E0008DFF48029E493A3F85407240CC8C333B9
:100A5E00C4540F4420C8834004F456800146F6DF88
:100A6E00E4800B0102040810204080900DE8E47E23
:100A7E00019360BCA3FF543F30E509541FFEE4937D
:100A8E00A360010ECF54C025E060A840B8E493A344
:100A9E00FAE493A3F8E493A3C8C582C8CAC583CA6F
:100AAE00F0A3C8C582C8CAC583CADFE9DEE780BE27
:010DEC000006
:10007E00E88FF0A4CC8BF0A42CFCE98EF0A42CFC21
:10008E008AF0EDA42CFCEA8EF0A4CDA8F08BF0A49F
:10009E002DCC3825F0FDE98FF0A42CCD35F0FCEBFE
:1000AE008EF0A4FEA9F0EB8FF0A4CFC5F02ECD39C3
:0F00BE00FEE43CFCEAA42DCE35F0FDE43CFC2230
:1000CD0075F008758200EF2FFFEE33FECD33CDCCEA
:1000DD0033CCC58233C5829BED9AEC99E58298406D
:1000ED000CF582EE9BFEED9AFDEC99FC0FD5F0D64A
:1000FD00E4CEFBE4CDFAE4CCF9A88222B800C1B974
:10010D000059BA002DEC8BF084CFCECDFCE5F0CBB1
:10011D00F97818EF2FFFEE33FEED33FDEC33FCEBEA
:10012D0033FB10D703994004EB99FB0FD8E5E4F9A5
:10013D00FA227818EF2FFFEE33FEED33FDEC33FC92
:10014D00C933C910D7059BE99A4007EC9BFCE99A86
:10015D00F90FD8E0E4C9FAE4CCFB2275F010EF2FCB
:10016D00FFEE33FEED33FDCC33CCC833C810D707CB
:10017D009BEC9AE899400AED9BFDEC9AFCE899F806
:0E018D000FD5F0DAE4CDFBE4CCFAE4C8F92299
:10019B00EB9FF5F0EA9E42F0E99D42F0E89C45F0BA
:0101AB002231
:1001AC00E8600FECC313FCED13FDEE13FEEF13FF31
:0301BC00D8F12255
:0C01BF00ECF0A3EDF0A3EEF0A3EFF022B3
:1001CB00A8828583F0D083D0821201E21201E21261
:1001DB0001E21201E2E473E493A3C583C5F0C58386
:1001EB00C8C582C8F0A3C583C5F0C583C8C582C87E
:0101FB0022E1
:1001FC00D083D082F8E4937012740193700DA3A392
:10020C0093F8740193F5828883E473740293B5F0C8
:0D021C00067403936860E9A3A3A3A380D830
:00000001FF
