:100C4600E4F5917B04FAF9F81202B290003EE0F85E
:100C5600A3E0F9A3E0FAA3E0FB1202B2EF14F5BE9B
:030C6600D2C622D1
:0A0D4A00E4F5918FC1D2C6D2C22297
:060D5B00E4F591C2C6227E
:100D1900E4F591EF6007147007439B0122539BFE92
:010D290022A7
:050D6100E4F591AFBDB7
:010D6600226A
:100D2A00EF600A14700A43BF0243BF042253BFFB99
:010D3A002296
:070D5400E4F59153BFFE22FC
:100CC700C2C3E5C030E314AFBDEF7002D2C4C2C3E4
:0C0CD70020C3EFC2C6D2C6C2C380E72211
:100B0300A2AF9203C2AF75C7AA75C755E4F591A208
:100B13000392AF43B30843B408A2AF9203C2AF75C5
:100B2300C7AA75C755F591A20392AF43B31043B457
:090B33001075BE0EC2C0D2C6222C
:030D6C0080FE22E4
:100003007FE87E03D2C5C2C320C312D3EF9400EEB0
:0D001300648094804007EF1F70011E80EB99
:0100200022BD
:100C8B007FE87E03C2C3D2C430C412D3EF9400EE0C
:0D0C9B00648094804007EF1F70011E80EB05
:010CA8002229
:100CA9007DE87C03C2C58FBCC2C320C310D3ED94B9
:0D0CB90000EC94004007ED1D70011C80ED63
:010CC600220B
:100ABD007DE87C03E4FED2C2C2C320C312D3ED9401
:100ACD0000EC648094804007ED1D70011C80EBAE3E
:100ADD00BCEF6401701D7C037DE8C2C2C2C320C39C
:100AED0012D3ED9400EC648094804007ED1D7001ED
:050AFD001C80EBAF06B8
:010B020022D0
:100C6900AB05AA04A9071200037F12120CA9AF0150
:100C7900120CA9AF03EB120CA9EAFF120CA9120C72
:020C89008B22BC
:020BD400AB076D
:100BD600E4FD1200037F12120CA9AF03120CA91236
:100BE60000037F13120CA97F01120ABDAD07120C78
:030BF6008BAF05BD
:010BF90022D9
:10002600120B037FFE120BD4900000EFF07FFF123D
:100036000BD4900001EFF090000AE4F0A304F0A3C3
:10004600F0A374F4F0A3120363000003E87F007EBC
:10005600367D6E7C0112054A7D007C047F3F120CC2
:10006600697D007C047F14120C697D007C347F1549
:03007600120C6900
:010079002264
:1006A000E4F591EF24F9600C14600E2402700D75CE
:1006B000A638800875A630800375A630A2AF9203D5
:1006C000C2AF75C7AA75C755439F01A20392AFE495
:1006D000F5A775AF04A2AF9203C2AF75C7AA75C7DD
:1006E0005543A401A20392AF85AE0B05A6A2AF921B
:1006F00003C2AF75C7AA75C75543A401A20392AF41
:1007000085AE0CEF24F87076E50B25E0FFE433FEB0
:10071000E50C54017C002FFFEC3EFE74F22FFF74B9
:10072000FF3EFE75AF0C75A601E4F5A7A2AF9203DC
:10073000C2AF75C7AA75C75543A401A20392AFAD56
:10074000AEED644B600EADAEED64526007ADAEED44
:100750006453701EE50B543FF50DC39407748094E9
:1007600080500A74F62FFF74FF3EFE8005EF1F7065
:10077000011EEF5401F50CEEC313EF13F50B75C713
:10078000AA75C755850B8475C7AA75C755850C858D
:10079000A2AF9203C2AF75C7AA75C755539FFEA2F9
:0307A0000392AF12
:0107A3002233
:100A6500EF24FD60121460282402704B7F02120BE4
:100A75003C7F021209E8227F031209E8A2AF920324
:100A8500C2AF75C7AA75C7555397DFA20392AF22A8
:100A95007F02120B3C7F021209E87F04120B3C7F98
:100AA500041209E8A2AF9203C2AF75C7AA75C7556C
:080AB5005397DFA20392AF2268
:100B3C00EF24FC60222402702FA2AF9203C2AF7587
:100B4C00C7AA75C755439720A20392AFE59644DF19
:100B5C0064DF701480F62275C7AA75C7554397C019
:090B6C00E59644F764F760F822F5
:100BAA00E4F591EF24FC60182402701DA2AF9203B1
:100BBA00C2AF75C7AA75C7555397DFA20392AF2272
:0A0BCA0075C7AA75C75553973F225F
:1009E800E4F591A2AF9203C2AFEF24FD602F14602B
:1009F8005424027063A2AF9203C2AF75C7AA75C729
:100A0800555396FBA20392AFA2AF9203C2AF75C72C
:100A1800AA75C7555396FDA20392AF803BA2AF9229
:100A280003C2AF75C7AA75C755439604A20392AF10
:100A3800A2AF9203C2AF75C7AA75C7555396FDA258
:100A48000392AF8013A2AF9203C2AF75C7AA75C74E
:0D0A580055439608A20392AFA20392AF226D
:040D6700C100C10105
:03002300020BFAD3
:100BFA00C0E0C083C082C09130980AD201900042FE
:100C0A00E599F0C298309905200002C299D091D096
:060C1A0082D083D0E0321D
:03007B00020C2054
:100C2000C0E0C083C082C09130F80A900043E59ACA
:100C3000F0D202C2F830F905200002C2F9D091D0FA
:060C400082D083D0E032F7
:10007E0090001F120357900023E014605E1470036B
:10008E0002019424026003020226759850438920CF
:10009E00438780438E10A2AF9203C2AF75C7AA7575
:1000AE00C755E4F591A20392AF53C4DF7B10FAF962
:1000BE00F890001FE0FCA3E0FDA3E0FEA3E0FF121A
:1000CE0002B2900024E0F8A3E0F9A3E0FAA3E0FB6B
:1000DE001202B2EFF404F58DD28E2275985043873A
:1000EE008053C4F8A2AF9203C2AF75C7AA75C755A5
:1000FE00E4F591A20392AF43C4207B10FAF9F89075
:10010E00001FE0FCA3E0FDA3E0FEA3E0FF1202B29D
:10011E00900024E0F8A3E0F9A3E0FAA3E0FB1202BA
:10012E00B2C3E49FFFE49EFE74019DFDE49CFC7847
:10013E00081203448FC6E47B10FAF9F890001FE012
:10014E00FCA3E0FDA3E0FEA3E0FF1202B2900024A8
:10015E00E0F8A3E0F9A3E0FAA3E0FB1202B2C3E4D5
:10016E009FFFE49EFE74019DFDE49CFCEFE48FC5B1
:10017E00A2AF9203C2AF75C7AA75C755F591A20378
:10018E0092AF43C4082275F85075C480E47B10FA10
:10019E00F9F890001FE0FCA3E0FDA3E0FEA3E0FF52
:1001AE001202B2900024E0F8A3E0F9A3E0FAA3E073
:1001BE00FB1202B2C3E49FFFE49EFE74019DFDE4B8
:1001CE009CFC78081203448FC6E47B10FAF9F89071
:1001DE00001FE0FCA3E0FDA3E0FEA3E0FF1202B2CD
:1001EE00900024E0F8A3E0F9A3E0FAA3E0FB1202EA
:1001FE00B2C3E49FFFE49EFE74019DFDE49CFCEF00
:10020E00E48FC5A2AF9203C2AF75C7AA75C755F5E5
:09021E0091A20392AF43C408222F
:100CFF00EF14600C0470103098FDAE99C298800705
:090D0F0030F8FDAE9AC2F8AF06FF
:010D180022B8
:0F0D3B00EF1460060470078D9922AF058F9A227E
:100B7500A2AF9203C2AF75C7AA75C755E4F591A296
:100B85000392AF53B1BF53B2BF900023F0A312033A
:100B9500630001C2007F007E367D6E7C0112007EFF
:050BA500D299D20022EC
:0607A4009000281203572B
:1007AA00538EF75389F04389017B407A42790F7857
:1007BA0000900028E0FCA3E0FDA3E0FEA3E0FF1206
:1007CA0002B2A804A905AA06AB0790002EE0FEA370
:1007DA00E0FFE4FCFD120227E47B0CFAF9F81202AE
:1007EA00B2C374FF9FFF74FF9EFEE49DFDE49CFC70
:1007FA00EFE4900030EFF07B407A42790F78009076
:10080A000028E0FCA3E0FDA3E0FEA3E0FF1202B291
:10081A00A804A905AA06AB0790002EE0FEA3E0FFF4
:10082A00E4FCFD120227E47B0CFAF9F81202B2C3C7
:10083A0074FF9FFF74FF9EFEE49DFDE49CFC780814
:10084A0012034490002CE07002A3E0602190003073
:10085A00E0F58A8F8CD28C308DFDC28DC28C9000CF
:0E086A002DE024FFF090002CE034FFF080D54C
:01087800225D
:060879009000311203574C
:10087F00538EEF53890F4389107B407A42790F785B
:10088F0000900031E0FCA3E0FDA3E0FEA3E0FF1227
:10089F0002B2A804A905AA06AB07900037E0FEA391
:1008AF00E0FFE4FCFD120227E47B0CFAF9F81202D8
:1008BF00B2C374FF9FFF74FF9EFEE49DFDE49CFC9A
:1008CF00EFE4900039EFF07B407A42790F78009097
:1008DF000031E0FCA3E0FDA3E0FEA3E0FF1202B2B3
:1008EF00A804A905AA06AB07900037E0FEA3E0FF16
:1008FF00E4FCFD120227E47B0CFAF9F81202B2C3F2
:10090F0074FF9FFF74FF9EFEE49DFDE49CFC78083E
:10091F00120344900035E07002A3E060219000398B
:10092F00E0F58B8F8DD28E308FFDC28FC28E9000EF
:0E093F0036E024FFF0900035E034FFF080D564
:01094D002287
:06054A00900006120357A9
:10055000E4F59190000AE0FEA3E08EF0120394050A
:10056000830001058800040590001005980020050F
:10057000A0004005A8008005B0010005B8020000F9
:100580000005BE53C98F803653C98F43C910802ED2
:1005900053C98F43C920802653C98F43C930801E59
:1005A00053C98F43C940801653C98F43C950800E29
:1005B00053C98F43C960800653C98F43C970C2C8ED
:1005C00043C98043C9047B407A42790F7800900088
:1005D00006E0FCA3E0FDA3E0FEA3E0FF1202B29060
:1005E000000EE0F8A3E0F9A3E0FAA3E0FB12022773
:1005F000C006C00790000AE0FEA3E0FFFBAA06E4E5
:10060000F9F8D007D0061202B2C3E49FFFE49EFEC1
:1006100074019DFDE49CFCEFE4900012EFF07B4040
:100620007A42790F7800900006E0FCA3E0FDA3E099
:10063000FEA3E0FF1202B290000EE0F8A3E0F9A3DF
:10064000E0FAA3E0FB120227C006C00790000AE010
:10065000FEA3E0FFFBAA06E4F9F8D007D0061202D9
:10066000B2C3E49FFFE49EFE74019DFDE49CFC7810
:100670000812034490000CE07002A3E06021900097
:1006800012E0F5CC8FCDD2CA30CFFDC2CFC2CA9016
:0F069000000DE024FFF090000CE034FFF080D567
:01069F002238
:0603C10090001312035727
:1003C700E4F591900017E024FE602124FE602524C7
:1003D700FC602924F8602D24F0603124E060352486
:1003E700C06039247F703B53C4F8803653C4F84348
:1003F700C401802E53C4F843C402802653C4F84373
:10040700C403801E53C4F843C404801653C4F8437E
:10041700C405800E53C4F843C406800653C4F8438A
:10042700C4077B407A42790F7800900013E0FCA361
:10043700E0FDA3E0FEA3E0FF1202B290001AE0F88D
:10044700A3E0F9A3E0FAA3E0FB120227C00790009C
:1004570017E0FFFBE4FAF9F8D0071202B2C3E49FF2
:10046700FFE49EFE74019DFDE49CFCEFE490001EFA
:10047700EFF07B407A42790F7800900013E0FCA3FD
:10048700E0FDA3E0FEA3E0FF1202B290001AE0F83D
:10049700A3E0F9A3E0FAA3E0FB120227C00790004C
:1004A70017E0FFFBE4FAF9F8D0071202B2C3E49FA2
:1004B700FFE49EFE74019DFDE49CFC780812034452
:1004C700900018E07002A3E06078A2AF9203C2AF79
:1004D70075C7AA75C755E4F591A20392AF53C4EF48
:1004E70090001EE0F5C58FC6A2AF9203C2AF75C7D5
:1004F700AA75C755E4F591A20392AF43C408E5C4B2
:1005070044EF64EF60F8A2AF9203C2AF75C7AA7554
:10051700C755E4F591A20392AF53C4EFA2AF92037C
:10052700C2AF75C7AA75C755F591A20392AF53C459
:10053700F7900019E024FFF0900018E034FFF00274
:0205470004C7E7
:01054900228F
:100CE300EF14600D14600D14600E2403700DD2A96F
:0C0CF30022D2AB22439B8022439C0222B1
:0300000002094EA4
:10094E00787FE4F6D8FD9000007FFF7E03E4F0A3ED
:0A095E00DFFCDEFA7581200209A318
:10096800020026E493A3F8E493A34003F68001F27F
:1009780008DFF48029E493A3F85407240CC8C33390
:10098800C4540F4420C8834004F456800146F6DF5F
:10099800E4800B0102040810204080900D67E47E7B
:1009A800019360BCA3FF543F30E509541FFEE49354
:1009B800A360010ECF54C025E060A840B8E493A31B
:1009C800FAE493A3F8E493A3C8C582C8CAC583CA46
:1009D800F0A3C8C582C8CAC583CADFE9DEE780BEFE
:010D6B000087
:10022700E88FF0A4CC8BF0A42CFCE98EF0A42CFC76
:100237008AF0EDA42CFCEA8EF0A4CDA8F08BF0A4F4
:100247002DCC3825F0FDE98FF0A42CCD35F0FCEB53
:100257008EF0A4FEA9F0EB8FF0A4CFC5F02ECD3918
:0F026700FEE43CFCEAA42DCE35F0FDE43CFC2285
:1002760075F008758200EF2FFFEE33FECD33CDCC3F
:1002860033CCC58233C5829BED9AEC99E5829840C2
:100296000CF582EE9BFEED9AFDEC99FC0FD5F0D69F
:1002A600E4CEFBE4CDFAE4CCF9A88222B800C1B9C9
:1002B6000059BA002DEC8BF084CFCECDFCE5F0CB07
:1002C600F97818EF2FFFEE33FEED33FDEC33FCEB40
:1002D60033FB10D703994004EB99FB0FD8E5E4F9FB
:1002E600FA227818EF2FFFEE33FEED33FDEC33FCE8
:1002F600C933C910D7059BE99A4007EC9BFCE99ADC
:10030600F90FD8E0E4C9FAE4CCFB2275F010EF2F20
:10031600FFEE33FEED33FDCC33CCC833C810D70720
:100326009BEC9AE899400AED9BFDEC9AFCE899F85B
:0E0336000FD5F0DAE4CDFBE4CCFAE4C8F922EE
:10034400E8600FECC313FCED13FDEE13FEEF13FF97
:03035400D8F122BB
:0C035700ECF0A3EDF0A3EEF0A3EFF02219
:10036300A8828583F0D083D08212037A12037A1293
:10037300037A12037AE473E493A3C583C5F0C583B8
:10038300C8C582C8F0A3C583C5F0C583C8C582C8E4
:010393002247
:10039400D083D082F8E4937012740193700DA3A3F8
:1003A40093F8740193F5828883E473740293B5F02F
:0D03B400067403936860E9A3A3A3A380D897
:00000001FF
